:020000040800F2
:10000000201F002001010008D3290008BF2000089C
:10001000D12900084B0800089939000800000000A9
:10002000000000000000000000000000F5320008A1
:10003000E90B000800000000812F00088934000847
:100040001B0100081B0100081B0100081B01000820
:100050001B0100081B0100081B0100081B01000810
:100060001B0100081B0100081B0100081B01000800
:100070001B0100081B0100081B0100081B010008F0
:100080001B0100081B0100081B0100081B010008E0
:100090001B0100081B0100081B0100081B010008D0
:1000A0001B010008ED3400081B0100081B010008BB
:1000B000F93400081B0100081B0100081B0100089F
:1000C0001B0100081B0100081B0100081B010008A0
:1000D0001B01000875390008813900088D390008B6
:1000E0001B0100081B0100081B010008DFF80CD0F1
:1000F00000F06EFB00480047C1420008201F0020AE
:100100000648804706480047FEE7FEE7FEE7FEE7B1
:10011000FEE7FEE7FEE7FEE7FEE7FEE7EB3400085A
:10012000ED000008202A04DB203A21FA02F0002129
:10013000704721FA02F3D040C2F1200291400843F7
:100140001946704740EA01039B0703D009E008C93C
:10015000121F08C0042AFAD203E011F8013B00F88C
:10016000013B521EF9D27047D2B201E000F8012BD8
:10017000491EFBD270470022F6E710B513460A4627
:1001800004461946FFF7F0FF204610BD30B505467E
:100190002A460B4612F8010B13F8014B08B1A04296
:1001A000F8D01CB1002802D06D1CF1E7284630BD04
:1001B00010B5044604E00B7800F8013B03B1491C7C
:1001C000521EF8D2204610BD421C10F8011B002917
:1001D000FBD1801A704710B5002200E0521C835CEE
:1001E0008C5CA34201D1002BF8D1D8B2E1B2401A05
:1001F00010BD034611F8012B00F8012B002AF9D19C
:10020000184670472DE9FE4F804681EA0300C00F73
:100210000C46009021F0004123F00045B8EB0200AD
:10022000A94105D24046214690461C460B4602464F
:1002300023F00040104347D0270DC7F30A00C3F353
:100240000A510290401A019040286BDAC3F3130060
:1002500040F4801B0098924620B10023D2EB030AA1
:1002600063EB0B0B01985946C0F14002504600F079
:10027000E2F906460D4650465946019A00F0EAF961
:1002800010EB08006141002487EA115284EAE77309
:100290001A4340D0009A62B3019A012A4FEA0752EA
:1002A00015DC001B61EB02014FF0004202EA07522D
:1002B000CDE90042001C41F5801132462B4600F08A
:1002C00021FA03B0BDE8F08F40462146F9E7001B54
:1002D00061EB0201001C41F5801300185B412018FE
:1002E000A2F5001747EB030140EAD570B6196D413E
:1002F00011E06D084FEA360645EAC0754FEA07522D
:10030000001B61EB0201001C41F5801149084FEA16
:1003100030000019514132462B4603B0BDE8F04F82
:1003200000F0E1B90098012240000023D0EB020266
:1003300063EBE073009821464FEAE074B8EB0000ED
:1003400061EB0401E9E783F000435BE781F00041E2
:1003500058E72DE9FE4F81EA030404F0004421F040
:10036000004100944FF0000B23F0004350EA0104D9
:100370005ED052EA03045BD0C3F30A54C1F30A55BA
:100380002C44A4F2F3340194A0FB0254C1F31301F2
:1003900041F48011C3F3130343F4801301FB0244BF
:1003A00000FB034E840A970A44EA815447EA8357C4
:1003B000A4FB076802958D0A05FB07854FEA932C7D
:1003C00004FB0C542705029D4FEA065847EA1637EE
:1003D000B5EB08056EEB070C870E920E47EA811706
:1003E00042EA8312A7FB0201B6EB0B0164EB0004A7
:1003F0002B0D43EA0C335E1844EB1C50DA46514691
:10040000E7FB0201C5F313044FEA0B3343EA14532D
:100410004FEA0432019C43EA0603A4F10C0402945F
:10042000009CCDE900B400F06DF903B0BDE8F08F99
:1004300000200146F9E72DE9F04D81EA030404F0BC
:10044000004B21F0004514464FF0000A23F0004114
:1004500050EA050220D054EA01021DD0C5F30A5724
:100460000246C5F31303C1F31300C1F30A5640F467
:10047000801543F48013A7EB0608101BD64608F23C
:10048000FD3873EB050002D308F1010801E0921872
:100490005B41B8F1000F03DA00200146BDE8F08DA2
:1004A00000204FF48011064684460EE0171B73EBC4
:1004B000050705D3121B63EB050306434CEA010C49
:1004C00049084FEA300092185B4150EA0107EDD12C
:1004D00052EA030012D082EA040083EA05010843CD
:1004E00005D0101BAB4106D20122002306E00022FA
:1004F0004FF0004302E06FF0010253101AEB0600C8
:100500004CEB085110EB0A0041EB0B01BDE8F04D3C
:1005100000F0E9B896230022114600F0B6B8C1F306
:100520000A5210B5C1F3130140F2FF3341F48011B8
:100530009A4201DA002010BD40F233439A42A2F2FF
:10054000334203DC5242FFF7EDFD10BD904010BD79
:1005500000F0004230F000400AD0C10D01F560719A
:10056000C0F3160042EA0151C20840071143704728
:10057000002001467047000030B5041E71F10004F0
:1005800004DB4FF00044404264EB0101141E73F1A0
:10059000000405DB1C464FF00043524263EB0403AA
:1005A000994208BF904230BD30B50B46014600204D
:1005B0002022012409E021FA02F59D4205D303FA25
:1005C00002F5491B04FA02F52844151EA2F10102A6
:1005D000F1DC30BD2DE9F05F0546002092469B46D8
:1005E00088460646814640241BE028464146474649
:1005F0002246FFF797FD53465A46C01A914110D341
:1006000011461846224600F016F82D1A67EB01082D
:100610004F4622460120002100F00DF817EB00099B
:100620004E41201EA4F10104DFDC484631462A4633
:100630004346BDE8F09F202A04DB203A00FA02F18D
:10064000002070479140C2F1200320FA03F31943C0
:1006500090407047202A06DBCB17203A41FA02F07F
:1006600043EAE07306E041FA02F3D040C2F120020F
:1006700091400843194670470029A8BF7047401CA5
:10068000490008BF20F00100704710B4B0FA80FCA8
:1006900000FA0CF050EA010404BF10BC704749B1E5
:1006A000CCF1200421FA04F411FA0CF118BF012155
:1006B00021430843A3EB0C01CB1D4FEA00614FEA35
:1006C000102042BF002010BC704700EBC350104404
:1006D0000029A4BF10BC7047401C490008BF20F08F
:1006E000010010BC704710B5141E73F1000408DA45
:1006F000401C41F1000192185B411A4301D120F0E6
:10070000010010BD2DE9F04D92469B4611B1B1FAA2
:1007100081F202E0B0FA80F220329046FFF78BFFC0
:1007200004460F4640EA0A0041EA0B0153465A4686
:10073000084313D0114653EA010019D0C8F1400212
:100740005046FFF7EFFC05460E46504659464246D6
:10075000FFF771FF084305D0012004E02046394629
:10076000BDE8F08D0020054346EAE0762C43374390
:100770000A986305E40AA0EB08000022FD0A44EA97
:1007800047540A3002D500200146E9E70105101957
:100790006941DDE9084500196941BDE8F04DA2E76E
:1007A000C1F30A52C1F3130140F2FF3341F4801147
:1007B0009A4202DA00200146704740F233439A42DF
:1007C000A2F2334202DC5242FFF7ACBCFFF733BF68
:1007D000064C074D06E0E06840F0010394E807008E
:1007E00098471034AC42F6D3FFF784FC406500080C
:1007F0006065000870B58C1810F8015B15F00703F0
:1008000001D110F8013B2A1106D110F8012B03E0A9
:1008100010F8016B01F8016B5B1EF9D12B0705D4B1
:100820000023521E0DD401F8013BFAE710F8013BFA
:10083000CB1A921C03E013F8015B01F8015B521E16
:10084000F9D5A142D8D3002070BDFEE72DE9F84FBD
:10085000D04C2069016A00208847C0B2E0704FF098
:100860000109012801D184F80290CA4D4FF0000817
:100870000835C94F404684F80180AE1E05F11C0AB8
:100880004FF47A7BC1B2705C032802D0042875D083
:10089000D3E0C1EBC10202EB01110A2007EB4101D9
:1008A000207081F801808A78C878097909B1401CE4
:1008B000C0B2C2EB021100EB8100A1884843206264
:1008C00002F088F86078C0EBC00101EB001007EB84
:1008D000400210210120521D02F064F960780823C3
:1008E000C0EBC00101EB001007EB40021021142007
:1008F000153202F01EFAA9A22021012002F052F9BD
:100900006078C0EBC00101EB001007EB40000179FB
:100910000091C3788278A048A2A15C3003F03EF831
:100920009D4A08235C322021282002F002FAA1A26D
:100930003021012002F036F99748A1A15C30226AEB
:1009400003F02CF8944A08235C3230213C2002F05A
:10095000F0F991485C30FFF737FC463000B299A2BD
:10096000302102F01FF9642000F064F9E0610028F2
:1009700063D06178042070545FE0FFE702F02AF84A
:1009800091A21021012002F00DF902F0E9F91921DC
:10099000052001F061FD61785AF8211001F10C0089
:1009A000D1F89C205A2190476078285C012808D013
:1009B0007848691C083002F03BFC0A2000F015F969
:1009C000F2E77448691C083002F032FC0A2000F09B
:1009D0000CF96078285C0028F3D1584600F005F93E
:1009E00061785AF8211001F10C00D1F89C20002107
:1009F00090476178C1EBC10202EB011107EB4101A5
:100A000081F8018001F0E6FF6178C1EBC10206F8D0
:100A1000018002EB011184F8008007EB4101C4F86A
:100A2000208081F8028081F8038081F8048081F8B9
:100A3000058081F8158081F82D906078285C012868
:100A40007BD1E078012878D12069C16A00208847ED
:100A5000A06162780146C2EBC20303EB021007EB10
:100A6000400090F82D2022B1012A05D0022A64D13D
:100A70006CE01921012088E000295ED011F1150FEA
:100A80005BD01C30FFF7B5FB6078C0EBC00101EB19
:100A90000010A16907EB4000401D491DFFF7A9FBAD
:100AA0006078C0EBC00101EB0010A16907EB4000CA
:100AB00015301531FFF79DFB61785AF8211001F1CF
:100AC0000C00D1F89C205A21904701F083FF42A2EC
:100AD0001021012002F066F801F0E4FC0128FBD0AF
:100AE0001921022001F0B8FC02F03AF96078285C84
:100AF00040B12848691C083002F09AFB0A2000F037
:100B000074F8F3E7584600F070F861785AF821104D
:100B100001F10C00D1F89C200021904701F05AFF10
:100B200060780221C0EBC00202EB001207EB420228
:100B300082F8019082F82D1031546078401CC0B2C8
:100B400060700228FFF49EAEBDE8F88F6078C0EBBD
:100B5000C00101EB001007EB40001C30A169FFF75A
:100B600015FB80B16078C0EBC00101EB0010A169FA
:100B700007EB400015301531FFF708FB18B161781D
:100B800003207054E0E719210420BDE8F84F01F07C
:100B900063BC00004C00002024110020CAB1B3A4A3
:100BA000A3BA0000253032643A253032643A253049
:100BB00032640000D3A6BDC9B7D1A3BA00000000BB
:100BC00025642000D4AA0000B5C8B4FDB3B5C1BEE9
:100BD000CABBB3F600000000D5FDD4DABDF8C8EBFF
:100BE000CDA3B3B5CEBB0000704700B502464FF4AD
:100BF0007A7302E0184600F003F8521EFAD200BDE4
:100C000000EBC000C1004FF0E02041610021816194
:100C1000052101610169C903FCD504210161704707
:100C200001220249024801F009BA000078000020C0
:100C3000940C002010B5044607E000BF00F01AF83D
:100C4000012807D00120FFF7D0FF2046641EA4B280
:100C5000F4D210BD05490648FFF7CBFA044900203D
:100C600081F81F0300F020F8014810BD4812002051
:100C7000FD15002010B50A4C207858B16420FFF70C
:100C8000B4FF0848217802888A4206D100202070EB
:100C9000012010BD4FF0FF3010BD0180002010BDBD
:100CA0007A000020400B002010B54FF44871034833
:100CB000FFF761FA02490020087010BD48120020B9
:100CC0007A00002072B6FEE710B590F821100022DD
:100CD000022905D00421816380F82020012010BD65
:100CE00001680B6823F00E030B6001680B6823F0AA
:100CF00001030B6090F84030C46B012101FA03F34B
:100D0000636080F8211080F82020104610BD00009C
:100D100010B590F821100024022903D0042181632A
:100D200001243DE001680A6822F00E020A600168B1
:100D30000A6822F001020A601A4A0168914201D150
:100D4000012121E0174A1432914201D110211BE008
:100D5000144A2832914201D1891515E0114A3C32DA
:100D6000914201D189140FE00E4A5032914202D1D2
:100D70004FF4803108E00B4A6432914202D14FF4C3
:100D8000801101E04FF08071064A083A516001215C
:100D900080F82110002180F82010416B01B18847B4
:100DA000204610BD080002402DE9F84FDFF8B89149
:100DB0000024A9F1040B23460F2709F1040AABF123
:100DC000040EC9E00125A5402A40AA427DD1674E04
:100DD000D1F804C0ACEB0608B44532D014DCBCF149
:100DE000030F3AD009DCBCF1000F2AD0BCF1010F8F
:100DF0001CD0BCF1020F31D11DE0BCF1110F17D096
:100E0000BCF1120F2AD119E0B8F5881F19D006DC01
:100E1000B8F5803F15D0B8F5801F1FD111E0B8F5A7
:100E2000001F0ED0B8F5041F18D10AE0CB6815E0FA
:100E3000CB681B1D12E0CB6808330FE0CB680C3386
:100E40000CE08B682BB1012B4FF0080303D04561F8
:100E500004E0042302E0056100E00023FF2A01D83A
:100E6000064601E000F104064FEA840501D9A5F128
:100E70002005D6F8008007FA05FC28EA0C0803FADA
:100E800005F548EA0508C6F800804D68ED0062D512
:100E9000374DAE6946F00106AE61AD6924F0030638
:100EA00005F001050095334D06EB050CDCF8085004
:100EB000A607360F07FA06F825EA0805DFF8B88016
:100EC000404503D14FF0000817E044E0DFF8AC8064
:100ED000404502D14FF001080FE0DFF8A480404503
:100EE00002D14FF0020808E0DFF89880404502D1B7
:100EF0004FF0030801E04FF0040808FA06F848EA4A
:100F00000508CCF808804D68D9F80060ED024D4620
:100F100001D5164300E096432E604D68DAF8006074
:100F2000AD02554601D5164300E096432E604D684C
:100F3000DBF80060AD035D4601D5164300E0964343
:100F40002E604D68DEF80060ED03754601D516434E
:100F500000E096432E60641C0D682A46E5407FF44D
:100F600031AFBDE8F88F0000080401400000111007
:100F7000001002400000014000080140000C014048
:100F800000100140001401408068084000D001209A
:100F900070470AB1016170470904FBE701488068A6
:100FA00070470000440B0020024881680278114419
:100FB00081607047440B0020074810B5016841F07C
:100FC00010010160032000F075F80F2000F006F812
:100FD00000F024F8002010BD0020024070B50D4D37
:100FE00004464FF47A712878B1FBF0F00A49096899
:100FF000B1FBF0F000F0DCFA48B9102C07D2002267
:101000002146501E00F036F800206C6070BD0120B3
:1010100070BD0000440B0020500B00200C4808B5A8
:10102000816941F001018161816901F00101009153
:10103000C16941F08051C161C06900F080500090E9
:101040000448416821F0E06141F00071416008BD51
:101050000010024000000140002809DB00F01F02E0
:10106000012191404009800000F1E020C0F800110A
:1010700070470000F0B40E4B1B680C46C3F302230C
:10108000C3F10705042D00D90425191D072901D234
:10109000002300E0DB1E012606FA05F1491E21406F
:1010A00099409E40761E16403143F0BC02F08ABC47
:1010B0000CED00E0064900F0070208684FF6FF0358
:1010C000184040EA0220034A1043086070470000BD
:1010D0000CED00E00000FA052DE9F0470F46050091
:1010E00061D0434E306800F00700B84209D2306842
:1010F00020F0070038433060306800F00700B84245
:1011000051D128683B4C810712D5400703D5606850
:1011100040F4E06060602878000703D5606840F420
:10112000605060606068A96820F0F000084360606B
:101130002878C00728D06868012810D021680228C4
:1011400010D0890700292EDA616821F003010143DC
:101150006160FFF723FF804641F288390DE0216886
:101160008903EFE78901EDE7FFF718FFA0EB08011E
:10117000494502D90320BDE8F0876068696800F03E
:101180000C00B0EB810FEFD1306800F00700B842DF
:101190000BD9306820F0070038433060306800F029
:1011A0000700B84201D00120E5E72878400705D5BF
:1011B0006068E96820F4E060084360602878000710
:1011C00006D56068296920F4605040EAC10060607B
:1011D00000F038F86168084AC1F30311515CC84057
:1011E0000649086006480068FFF7F8FE0020C2E7DD
:1011F000002002400010024027650008500B00202C
:10120000480B00200448054900684968044AC1F3B6
:101210000221515CC8407047500B00200010024072
:10122000376500080448054900684968044AC1F365
:10123000C221515CC8407047500B00200010024092
:10124000376500080E4A51680E4801F00C03042B64
:1012500011D0082B0FD10C48C1F38343C903C05CE4
:101260000AD55168084AC1F34041921E515C054AB3
:101270005043B0FBF1F07047044948437047000009
:101280000010024000127A001765000800093D00B6
:101290002DE9F84F040070D02078C04DC00749D028
:1012A0006868C0F38100012807D06868C0F3810036
:1012B000022809D16868C00306D52868800339D59B
:1012C00060680028E7D035E06068B0F5803F0BD05B
:1012D00010B1B0F5A02F11D0286820F4803028601C
:1012E000286820F4802002E0286840F480302860DC
:1012F000606890B1FFF752FE06460AE0286840F4A5
:1013000080202860F0E700BFFFF748FE801B6428BC
:1013100073D828688003F7D50CE0FFF73FFE064638
:1013200005E000BFFFF73AFE801B6428F0D828686C
:101330008003F7D420789A4E80074FF001094FF0D0
:10134000000839D5686810F00C0F07D06868C0F342
:101350008100022809D16868C00306D42868800784
:1013600014D52069012808D110E02069B0B1C6F871
:101370000090FFF713FE074605E00AE1FFF70EFEB7
:10138000C01B0228C4D828688007F7D5286861697F
:1013900020F0F80040EAC10028600DE0C6F80080A7
:1013A000FFF7FCFD074604E0FFF7F8FDC01B02282D
:1013B00023D828688007F7D4207800072CD57948EF
:1013C000A169D9B1C0F80090FFF7E8FD074604E035
:1013D000FFF7E4FDC01B02280FD8686A8007F7D525
:1013E00071484FF4FA510068B0FBF1F0009000BF73
:1013F0000098411E0091FAD20EE080E0C0F8008013
:10140000FFF7CCFD074604E0FFF7C8FDC01B02282C
:1014100075D8686A8007F7D42078400760D5E869F6
:101420000027C00008D4E86940F08050E861E8690E
:10143000012700F0805000905C480168C90513D472
:101440000168834641F480710160FFF7A7FD824681
:1014500006E000BFFFF7A2FDA0EB0A0064284ED80B
:10146000DBF80000C005F5D5E06801280AD008B116
:10147000052813D0286A20F001002862286A20F08D
:10148000040002E0286A40F001002862E06841F2AE
:10149000883B98B1FFF782FD82460BE0286A40F056
:1014A00004002862EEE700BFFFF778FDA0EB0A0119
:1014B00059455AD8286A8007F6D50CE0FFF76EFD2B
:1014C000824605E0FFF76AFDA0EB0A0159454CD8BA
:1014D000286A8007F6D41FB1E86920F08050E861DF
:1014E000E06988B36968C1F38101022944D0022808
:1014F000C6F8608004D0FFF751FD044638E034E0C0
:10150000FFF74CFD074604E0FFF748FDC01B02282B
:101510002BD828688001F7D4206AB0F5803F05D128
:101520006868A16820F4003008436860D4E90801C5
:101530000843696821F4741108436860C6F8609034
:10154000FFF72CFD044606E025E000BFFFF726FD6F
:10155000001B022809D828688001F7D51BE000BFCE
:10156000FFF71CFD001B022802D90320BDE8F88FFD
:1015700028688001F4D40EE00128F7D06868226A58
:1015800000F48031914204D1616A00F47010884205
:1015900001D00120EAE70020E8E700000010024047
:1015A0000000424280044242500B00200070004084
:1015B00010B5401EB0F1807F01D3012010BD4FF067
:1015C000E02460610F21601702F0FCF90020A061A7
:1015D00007202061002010BD7047704770B590F85B
:1015E0003C20012A26D0012480F83C40022280F8C9
:1015F0003D2003685A689D6822F070060A683243ED
:101600005A600D4B02689A4208D0B2F1804F05D063
:101610000A4B9A4202D00A4B9A4204D1496825F0FB
:1016200080031943916080F83D40002180F83C1010
:10163000084670BD022070BD002C0140000400402F
:101640000008004010B5040003D094F83D0010B12C
:1016500007E0012010BD002084F83C00204600F087
:101660001FF8022084F83D00211D206801F04AFF88
:10167000012084F8460084F83E0084F83F0084F896
:10168000400084F8410084F8420084F8430084F864
:10169000440084F8450084F83D00002010BD00009F
:1016A00008B5154A0168154891420ED1816941F487
:1016B000006181618069002200F4006000901146A1
:1016C0001920FFF7D7FC192010E0B1F1804F11D19C
:1016D000C16941F00101C161C069002200F001004F
:1016E000009011461C20FFF7C5FC1C20BDE80840F7
:1016F000FFF7B2BC08BD0000002C01400010024002
:1017000090F83D10012901D001207047022180F896
:101710003D100168CA6842F00102CA6000680B49C6
:10172000884208D0B0F1804F05D00949884202D0E4
:101730000849884204D1816801F00701062903D0D5
:10174000016841F00101016000207047002C014058
:10175000000400400008004070B5044690F83C00CA
:101760000025012817D0012684F83C60022084F867
:101770003D002068826822F0770222F47F42826076
:101780000868502838D00DDC20284FD005DC90B3F5
:10179000102811D14AE0022070BD302846D04028E0
:1017A0000AD13BE060282FD070280DD0B0F5805FC3
:1017B00003D0B0F5005F12D0012584F83D60002011
:1017C00084F83C00284670BDCB68D1E9012120682F
:1017D00001F0E1FE2068816841F0770109E0CB6803
:1017E000D1E90121206801F0D6FE2068816841F42A
:1017F00080418160E1E719E0CA684968206801F02A
:101800007FFF5021206806E0CA684968206801F01F
:1018100088FF6021206801F0C8FECEE7CA684968E9
:10182000206801F06DFF40212068F4E7226801463E
:101830001046F0E770472DE9F04104460068C6689D
:1018400005694FF00007A90713D5B10711D5F91E97
:10185000016101202077206880698007204602D03E
:10186000FFF7E8FF04E000F0A5F8204600F04AF991
:101870002777680716D5700714D521686FF0040024
:101880000861022020772068806910F4407F20469C
:1018900002D0FFF7CFFF04E000F08CF8204600F004
:1018A00031F92777280715D5300713D521686FF050
:1018B00008000861042020772068C069800720465E
:1018C00002D0FFF7B7FF04E000F074F8204600F004
:1018D00019F92777E80616D5F00614D521686FF0B8
:1018E00010000861082020772068C06910F4407F4C
:1018F000204602D0FFF79EFF04E000F05BF8204690
:1019000000F000F92777E80708D0F00706D0216833
:101910006FF001000861204600F044F9280608D560
:10192000300606D521686FF0800008612046FFF779
:1019300053FE680608D5700606D521686FF0400092
:101940000861204600F074F9A8060AD5B00608D54B
:1019500021686FF0200008612046BDE8F041FFF7E4
:101960003CBEBDE8F081000000B585B000210091CB
:1019700001910291039100680B49884211D10B48F3
:10198000816941F0080181618069694600F00800C1
:101990000490C02000900220019003900448FFF7BB
:1019A00003FA05B000BD000000080040001002402E
:1019B000000C0140704770B5044690F83C000026CA
:1019C0000D4601280FD0012084F83C006AB1042A9A
:1019D0001DD0082A2FD00C2A3FD00126002084F8E1
:1019E0003C00304670BD022070BD206801F0E6FD6D
:1019F0002068816941F0080181612068816921F0D6
:101A000004018161206881692A69114311E020681D
:101A100001F0FCFD2068816941F40061816120686A
:101A2000816921F480618161206881692A6941EAC4
:101A300002218161D2E7206801F014FE2068C169AB
:101A400041F00801C1612068C16921F00401C16150
:101A50002068C1692A69114311E0206801F02EFE57
:101A60002068C16941F40061C1612068C16921F445
:101A70008061C1612068C1692A6941EA0221C161AE
:101A8000ACE710B5040003D094F83D0010B107E0B6
:101A9000012010BD002084F83C00204600F01EF814
:101AA000022084F83D00211D206801F02BFD01205B
:101AB00084F8460084F83E0084F83F0084F8400033
:101AC00084F8410084F8420084F8430084F844001C
:101AD00084F8450084F83D00002010BD08B500687A
:101AE0000649884208D10648C16941F00401C16134
:101AF000C06900F00400009008BD0000000800402C
:101B0000001002407047000010B50446022249B19F
:101B100004290ED0082913D094F84100012816D0CA
:101B2000012010BD94F83E000128F9D184F83E2030
:101B30000FE094F83F000128F2D184F83F2008E03C
:101B400094F840000128EBD184F8402001E084F8AB
:101B500041200122206801F011FD0F4920688842D0
:101B600003D1426C42F4004242642068884208D0AB
:101B7000B0F1804F05D00949884202D00849884217
:101B800004D1816801F00701062903D0016841F002
:101B900001010160002010BD002C01400004004044
:101BA0000008004070B5054601F0CEFD04460AE08D
:101BB0002968E068814204D1D4F8901004F10C0047
:101BC0008847D4F8A440002CF2D12868B0F1804FA7
:101BD00014D10021154B0C46C1EBC10000EB0115DF
:101BE00003EB45004278012A04D102793B2A06D052
:101BF000521C0271491CC9B20229EDD370BDC278D2
:101C00003B2A0ED98278172A08D98470C4700471CF
:101C100013F81500401C03F81500EBE7521C827006
:101C2000E8E70471521CC270E4E7000024110020B0
:101C30007047704770470000F8B5016804460868AF
:101C4000CA684B6910F00F0F4FF0000559D003F030
:101C5000010602F49077374365D0C10705D0D1055E
:101C600003D5616C41F001016164410705D5D907D5
:101C700003D0616C41F002016164810705D5D90789
:101C800003D0616C41F004016164010707D502F0E3
:101C90002001314303D0616C41F008016164616C43
:101CA00000293AD0800604D5900602D5204601F0DE
:101CB00087FD20684069616CC0F38010090700D47B
:101CC00060B3204601F04EFD20684069400621D5F2
:101CD0002068143050E8001F21F0400140E8001255
:101CE000002AF5D1E06BA8B16D494163E06BFFF7C5
:101CF0000FF8002811D0E06B416B01B0BDE8F04057
:101D0000084783060FD593060DD52046BDE8F84059
:101D100001F056BD2046FFF78DFFF8BD2046FFF7C6
:101D200089FF6564F8BD266B2023012E7CD1C60691
:101D30007AD5D60678D508684868009048694FF08B
:101D40000206400640D5E16B086840680004000CBC
:101D5000E8D0A28D8242E5D9E085886920282DD07F
:101D600020680C3050E8001F21F4807140E8001218
:101D7000002AF5D12068143050E8001F21F001013D
:101D800040E80012002AF5D12068143050E8001F06
:101D900021F0400140E80012002AF5D184F84230D9
:101DA000256320680C3050E8001F21F0100140E846
:101DB0000012002AF5D1E06BFEF786FF6663A08D66
:101DC000E18D401A81B22AE0A08DE18D401A81B2E6
:101DD000E08D0028A6D00029A4D022680C3252E859
:101DE000000F20F4907042E80007002FF5D1206822
:101DF000143050E8002F22F0010240E80027002FA5
:101E0000F5D184F84230256320680C3050E8002F6B
:101E100022F0100240E80023002BF5D16663204633
:101E2000FFF707FFF8BDFFE705062BD5150629D5F7
:101E300094F841002128F5D1A068B0F5805F01D168
:101E40002069B0B1206A411C216221680078486095
:101E5000E08C401E0004000CE084E3D12068C168DF
:101E600021F08001C1602068C16841F04001C1607B
:101E7000D8E7206A0088C0F308004860206A801C08
:101E80002062E5E74006CDD55006CBD5CA6820468E
:101E900022F04002CA6084F8413000F00FF9C1E737
:101EA0005537000870B5040004D094F841000025AF
:101EB00010B106E0012070BD84F84050204600F0CB
:101EC00023F8242084F841002068C16821F40051DF
:101ED000C160204601F0D6FC2068016921F49041E0
:101EE00001612068416921F02A0141612068C168CF
:101EF00041F40051C1606564202084F8410084F8F9
:101F000042006563002070BDF0B585B000240094E8
:101F10000194029403940368424F02204249032231
:101F2000424D4602BB4225D18B6943F480438B610D
:101F30008B6903F4804304938B6943F004038B6142
:101F40008969039201F0040104910102CDE90010B6
:101F500069462846FEF728FFCDE900646946284611
:101F60000294FEF721FF002211462520FFF782F898
:101F7000252028E02E4FBB4229D1CB6943F4003302
:101F8000CB61CB6903F4003304938B6943F0040302
:101F90008B618969039201F0040104910421CDE968
:101FA000001069462846FEF7FFFE0820CDE9000430
:101FB000694628460294FEF7F7FE002211462620C5
:101FC000FFF758F82620FFF747F805B0F0BD194D88
:101FD000AB42FAD1CB6943F48023CB61CB6903F4E4
:101FE000802304938B6943F008038B618969124D48
:101FF00001F00801CDE90321CDE9006069462846DA
:10200000FEF7D2FEE814CDE90004694628460294A2
:10201000FEF7CAFE002211462720FFF72BF82720E3
:10202000D1E70000003801400010024000080140E4
:102030000044004000480040000C014090F842304D
:10204000202B01D00220704721B11AB10023036375
:1020500001F074BC0120704770B5054601F0AAFB81
:10206000044609E0D4F88010884203D1E16804F105
:1020700038008847D4F8044A2868002CF2D10B496C
:10208000884211D10A4C0B4A608821781154401CB7
:102090006080012221460848FFF7D0FF6088B0F534
:1020A000487F01D30020608070BD000000440040E4
:1020B0007800002048120020940C00207047FEE7B2
:1020C00010B50120FEF79CFD034881898068BDE8BA
:1020D000104089B2FEF758BF3C00002070B50024C4
:1020E0000546802626FA04F0284000F035F8012045
:1020F00000F022F8002000F01FF8641C082CF1DB2F
:1021000070BD10B5012000F027F8012000F014F890
:10211000002000F021F8BDE81040002000F00CB8CD
:1021200010B5002000F018F8012000F005F8BDE817
:102130001040012000F010B8064B10B599880246F7
:1021400089B21868FEF725FFBDE810400120FEF7B0
:1021500057BD00003C000020064B10B5998902468F
:1021600089B29868FEF715FFBDE810400120FEF720
:1021700047BD00003C00002010B50120FFF7ECFF38
:102180000120FFF7D9FFFFF79BFF04460020FFF770
:10219000D3FF204610BD000070B50E46044681688E
:1021A0000E4815460160E168416021688160616800
:1021B000C160FFF7A6FF207EFFF790FFFFF7DCFF6F
:1021C0003046FFF78BFFFFF7D7FF2846FFF786FF64
:1021D000FFF7D2FFBDE87040FFF7A2BF3C00002030
:1021E0002DE9F0411D461646884607460024FFF7B4
:1021F00088FF387EFFF772FFFFF7BEFF4046FFF70C
:102200006DFFFFF7B9FF06E0305DFFF767FFFFF7EF
:10221000B3FF641CE4B2AC42F6D3BDE8F041FFF773
:102220007FBF437E002B01D1FFF7B6BF704730B4AC
:10223000447E002C02D130BCFFF7D2BF30BC7047C7
:10224000F0B5A3B04FF480706D4D42002B46009066
:1022500019466CA000F056FC6C4CE060C1681C3064
:1022600088476B496BA000F0D7FE20614169383088
:1022700088473D22694910A8FDF764FF674810F8B8
:102280003D1F8DF87D1041788DF87E1081788DF896
:102290007F10C1788DF8801001798DF88110417917
:1022A0008DF8821081798DF88310C1798DF88410B2
:1022B000017A8DF88510407A8DF88600402212A9A7
:1022C0006846FDF73FFFDDE91023554955A000F0B2
:1022D00043F96061D0F88C100C3088473D22524998
:1022E00011A8FDF72FFF504C14F83D0F8DF8810019
:1022F00060788DF88200A0788DF88300E0788DF802
:10230000840020798DF8850060798DF88600A079A9
:102310008DF88700E0798DF88800207A8DF88900A3
:10232000607A8DF88A0000201090402213A9684638
:10233000FDF708FF3D4FDDE9112339463CA001F0D0
:1023400017F8324E3D2224363749306011A8FDF788
:10235000F9FE20788DF8810060788DF88200A078F1
:102360008DF88300E0788DF8840020798DF8850061
:1023700060798DF88600A0798DF88700E0798DF876
:102380008800207A8DF88900607A8DF88A00042010
:102390001090402213A96846FDF7D4FEDDE9112311
:1023A000394625A000F0E4FF70603068002100F19C
:1023B0000C02D0F89C30104698477068002100F15C
:1023C0000C02D0F89C30104698472A46012302217F
:1023D000104600F039F8FEF723FC00F0FBFA18492C
:1023E000012081F82D0081F85B00A6F11E01087024
:1023F000487023B01348BDE8F040FFF781B90000F2
:10240000000C01404F4C4544000000004C000020EF
:10241000004800404F50454E4D560000740B0020C0
:10242000002C01404B455900040C002000080040DE
:10243000534552564F310000534552564F3200001B
:1024400024110020BC0B002010B5024C84E80F00C2
:1024500010BD00007C0000202DE9F0410F4605462C
:1024600000F020F800281AD10A20B5FBF0F1B5FBE6
:10247000F0F400FB1156384600F04DF80A2000F049
:1024800019F824B1204600F015F8304600E028463F
:1024900000F010F8BDE8F0410B2000F00BB8BDE8EB
:1024A000F081000002488189806889B2FEF76CBD26
:1024B0007C00002070B504460025012000F042F8A1
:1024C0000120FEF792FB002000F03CF80420FEF70C
:1024D0008CFB4FF41676012000F034F8E00707D0AB
:1024E0003046FEF78DFB002000F02CF8C82006E0F7
:1024F000C820FEF785FB002000F024F83046FEF7E8
:102500007FFB6D1C6408EDB2082DE4D3BDE870407C
:10251000012000F017B80A2170B5B0FBF1F2B0FB52
:10252000F1F401FB12050846FFF7C4FF2046FFF750
:10253000C1FF2846FFF7BEFFBDE870400C20FFF743
:10254000B9BF0000034B02469988186889B2FEF7AC
:1025500020BD00007C0000200FB43D2270B51A4C55
:10256000054604F11000E16006A93734FDF7EAFDE5
:102570009DF85500A0759DF85600E0759DF8570030
:1025800020769DF8580060769DF85900A0769DF859
:102590005A00E0769DF85B0020779DF85C0060773C
:1025A0009DF85D00A0779DF85E00E077294606481B
:1025B000FDF71FFE044800F063FE284670BC5DF87E
:1025C00014EB00F0ADBE00008C00002070B5294E69
:1025D00000254FF480513046FEF7D6FC264C71148E
:1025E00020703046FEF7D0FC20754FF48041304615
:1025F000FEF7CAFC84F828005FF0010205EB8501B4
:1026000004EB8100837823B1012B0DD0022B17D16D
:102610000FE014F8211001B98270017C01290FD15B
:10262000C168491CC1600BE014F8211041B90221B6
:102630001EE014F82110012907D04168491C4160AF
:102640006D1CEDB2032DD9D370BD0C4909680B4B3D
:102650001B1D1B68491C5B1C5943094BB3FBF1F163
:102660004368994201D8C27000E042700021416085
:102670008170E5E7000C014068150020282C01401E
:1026800000A24A04001DFFF73BB800002DE9F0410D
:102690001F4C2048002562780178012A12D01E487C
:1026A000677D0268466813460C3206F10C00012F64
:1026B00013D094F82970012F0BD101291CD00229C5
:1026C0001ED021E0022906D0491C017000F082F9D9
:1026D0006570BDE8F0810570F8E7012902D0022994
:1026E00004D007E01046D3F89C2001E0D6F89C20E7
:1026F000002190476575ECE71046D3F89C2001E077
:10270000D6F89C205A21904784F82950E1E7000030
:10271000681500204C00002070000020F0B585B046
:10272000002429480094019402940394816941F0A3
:1027300020018161816901F020010491816941F0EA
:1027400004018161816901F004010491816941F012
:102750000801816180691D4F00F00800049000228B
:1027600040F202313846FEF714FC0320CDE90004A4
:10277000694617480294FEF717FB3120CDE90004A3
:10278000694638460294FEF70FFB02250126CDE983
:10279000005669463846CDE90245FEF705FB4FF481
:1027A000E0408DE8510069463846FEF7FDFA4FF4E7
:1027B0004070009001AA112082E831006946384635
:1027C000FEF7F2FA05B0F0BD00100240000C014027
:1027D0000008014010B586B0002418480094019408
:1027E00002940394049414490594016040F2CF21AB
:1027F000C0E9011440F2E731C0E903144461846187
:10280000FEF720FF08B1FEF75DFA4FF4805000900C
:1028100069460A48FEF7A0FF08B1FEF753FA049490
:1028200004A906480594FEF7D9FE002801D0FEF75A
:1028300049FA06B010BD0000002C0140740B0020C6
:1028400010B586B0002417480094019402940394B4
:1028500004944FF080410594016041F61F41C0E9A6
:10286000011442F20F71C0E903148461FEF7EAFE1D
:1028700008B1FEF727FA4FF48050009069460948E6
:10288000FEF76AFF08B1FEF71DFA049404A9054893
:102890000594FEF7A3FE002801D0FEF713FA06B058
:1028A00010BD0000BC0B002010B58AB000240794B6
:1028B0001C2168460894FDF75EFC1A48184901601F
:1028C0004721C0E9011440F6C311C0E90314846133
:1028D000FFF7D7F808B1FEF7F5F9079407A91148F3
:1028E0000894FEF77BFE08B1FEF7ECF96020CDE915
:1028F00000040294002269460A480494FFF75BF83A
:1029000008B1FEF7DFF9042269460648FFF753F8DD
:1029100008B1FEF7D7F90348FFF726F80AB010BD53
:1029200000080040040C00200C4810B50A49016062
:102930004FF4E1314160002181600C22C160C0E9A7
:1029400004128161C161FFF7ADFA002803D0BDE830
:102950001040FEF7B7B910BD003801404C0C002004
:102960000C4810B50A4901604FF41651416000212E
:1029700081600C22C160C0E904128161C161FFF76E
:1029800091FA002803D0BDE81040FEF79BB910BDB6
:1029900000440040940C00200C4810B50A49016026
:1029A0004FF4E1314160002181600C22C160C0E937
:1029B00004128161C161FFF775FA002803D0BDE8F8
:1029C0001040FEF77FB910BD00480040DC0C00202D
:1029D000FEE7FEE710B50021074C0A46002004EB95
:1029E000C1131A54401CC0B28028FAD3491CC9B282
:1029F0000829F3D310BD0000240D0020F0B50B44CE
:102A000024E0044685181DE07F2C19D8002917DB27
:102A10003F2915DCCE1701EB56764FEAE60C0D4F39
:102A200026F0070607EBCC172744A1EB060E97F814
:102A300000C0012606FA0EF62CEA060C87F800C044
:102A4000641C24B2A542DFDC491C09B28B42D8DCED
:102A5000F0BD0000240D002010B500204FF47A7264
:102A60000021491C9142FCD3401C9042F8D3AE2077
:102A700000F08AF9D52000F087F9802000F084F971
:102A8000A82000F081F93F2000F07EF9D32000F06B
:102A90007BF9002000F078F9402000F075F9A120C2
:102AA00000F072F9C82000F06FF9DA2000F06CF93C
:102AB000122000F069F9812000F066F9CF2000F0C3
:102AC00063F9D92000F060F9F12000F05DF9DB2016
:102AD00000F05AF9302000F057F9A42000F054F922
:102AE000A62000F051F98D2000F04EF9142000F0DE
:102AF0004BF9AF2000F048F9FFF76CFFBDE810403C
:102B000000F02EB970B505460A4C0498C4E90930A6
:102B1000E4E90712782020760020607629460548EF
:102B2000FDF767FB034800F09DFB2846BDE87040B9
:102B300000F0E2BB000000200246012000E050430C
:102B4000491EFCD2704710B50C4640F0B00000F0B2
:102B50001BF9102040EA141000F016F904F00F00E1
:102B6000BDE8104000F010B908B5082B0DD0062BB9
:102B70000AD10A4B02EB420203EB4202C03A009236
:102B80000823062200F054F808BD054B03EB02129F
:102B9000A2F50072102300920822F3E74C490008C6
:102BA0005C4300082DE9FC5F002490468B4682467A
:102BB0002546DFF87490019430E001A90855641CA3
:102BC000E4B2022C28D30024264606E0384601A9A8
:102BD000FDF701FB68B1761CF6B2C6EBC60000EB50
:102BE000800101EB0900074610A1FDF7F4FA002867
:102BF000ECD1C6EBC60000EB800101EB0900C01C64
:102C00000090681C41080AEB01101038102300B234
:102C10001A46594600F00CF86D1CEDB218F8050084
:102C20000028CAD1BDE8FC9F864B000800000000C8
:102C30002DE9F04F1F4616460D4682460024FFF749
:102C4000DDFE7F1EF81707EB50700121DFF898B00A
:102C500001EBE00743E000203DE000BF0AEB00038A
:102C60007F2B36D8E91705EB5171CA1021F0070107
:102C7000691A002D03DA521E083112B209B202EBB2
:102C80000409B9F1070F0ED8099A04FB06F80244AB
:102C90000BEBC91E18F802201EF803C08A404CEA4C
:102CA000020C0EF803C009F10102072A11D80BEB40
:102CB000C91202EB0308099A04FB06FC024498F8C7
:102CC00080301CF80220C1F10801CA40134388F883
:102CD0008030401CC0B2B042C0D3641CE4B2A742F2
:102CE000B9DCBDE8F08F0000240D00202DE9F0478D
:102CF00000241D4690468A4681460A27089E14E015
:102D0000291B0A20491EFFF717FFB8FBF0F0B0FBA4
:102D1000F7F107FB110204FB069000B2334651465F
:102D20003032FFF721FF641CE4B2AC42E8D3BDE8C7
:102D3000F0872DE9F0411E461546884607460024D7
:102D400008E004FB067000B233464146FFF70CFF73
:102D5000641CE4B22A5D002AF3D1BDE8F0810000D2
:102D600070B5084D002400212046FFF7ECFE05EB6E
:102D7000C410802100F010F8641CE4B2082CF2D3D7
:102D800070BD0000240D0020024600210148FFF71D
:102D900048BA00001C0000200B46024640210148B2
:102DA000FFF745BA1C00002038B5594D594C28781A
:102DB00070B1012851D0022873D003286FD00428A5
:102DC0006ED155A210210120BDE83840FFF7EABEC0
:102DD000012154A20846FFF7E5FE94F82D000128D2
:102DE00037D053A201213C20FFF7DCFE52A2102174
:102DF0000120FFF7D7FE94F85B0001282BD04CA2EE
:102E000010213C20FFF7CEFE0820012300901A4637
:102E100020211846FFF76AFF4AA220210A20FFF767
:102E2000C1FE3C48AA8849A15C3000F0B7FD394A90
:102E300008235C3220213220FFF77BFF35485C30CD
:102E4000FDF7C2F900EB8000323000B241A2202130
:102E5000BAE741A2C6E740A2D2E7012131A2084663
:102E6000FFF7A0FE94F82D00012815D030A2012113
:102E70003C20FFF797FE621D10210120FFF792FE14
:102E8000244A0823153210211420FFF752FF20791D
:102E90000090E378A27826E02FA2E8E701E033E093
:102EA00034E0012124A20846FFF77CFE94F85B0081
:102EB000012827D01EA201213C20FFF773FE154AEE
:102EC000102133320120FFF76DFE124A08234332EE
:102ED00010211420FFF72DFF94F83200009094F891
:102EE000313094F830200B481DA15C3000F056FDC5
:102EF00001B0084ABDE8304008235C32202101209F
:102F0000FFF717BF14A2D6E719A25BE738BD000090
:102F10004C00002024110020D5FDD4DABDC9B7D162
:102F200000000000B3B5CEBBD2BBA3BA00000000C6
:102F3000D2D1D5BCD3C30000B3B5CEBBB6FEA3BAC5
:102F400000000000B7D6D6D3000000002564202082
:102F500000000000D4AA0000CEB4D5BCD3C300004A
:102F6000253032643A253032643A2530326400002C
:102F7000B5C8B4FDB3B5C1BECABBB3F6000000000E
:102F8000704700002DE9F0411A4E96F8CA06012854
:102F90002ED106F2A9352846FDF716F90A2827DBB7
:102FA000042229461448FDF703F9134C0027291D74
:102FB00004F11500277106220546FDF7F9F8E776BA
:102FC0002146601D00F03EF8621D30210120FFF710
:102FD000E9FD08232A4630212820FFF7AAFE716B5D
:102FE00006F13800884786F8CA760120BDE8F081EE
:102FF0000020FBE738010020D41500204FF4487171
:1030000000F27130FDF7B7B800F55C71012201489C
:10301000FFF714B8DC0C002070B50D4604460146DD
:103020000748FDF7E6F80648002102692846904760
:10303000034800F035F92046BDE8704000F084B93F
:10304000380100202DE9F0410C4D0E4607460024C2
:1030500005EBC4013046C91CFDF7BDF830B1641C56
:10306000E4B21A2CF4D30020BDE8F08105EBC401D2
:103070003846FDF7BEF80120F6E700004564000879
:1030800000487047D415002010B5044600F55C7167
:1030900001221448FEF7D2FF94F891160020012275
:1030A00071B101290BD194F870137D2915D094F8D2
:1030B000930604F27133421C84F89326C15410BD68
:1030C00094F870137B29FAD194F892160029F6D15E
:1030D00084F8912684F8930610BD84F8910684F84C
:1030E000922610BDDC0C002070B5FFF74BFF0128C5
:1030F00036D11D4C1D49207838B1002501280BD050
:10310000022817D0032824D02AE01848491D303857
:10311000FDF76FF801201AE014480E46491D3038BB
:10312000FDF759F8D8B91148711D2038FDF761F83D
:1031300002200CE00D480E46491D2038FDF74BF8E3
:1031400068B90A48711D1038FDF753F80320207044
:1031500006E00648491D1038FDF73DF810B125700E
:10316000002070BD012070BD34010020D415002066
:1031700070B594B00646012212A92B48FEF75EFFF7
:10318000262229496846FCF7DDFF274CE08CADF884
:103190002600A06A0A90A08DADF82C00E08DADF855
:1031A0002E00206B0C90606B0D900EA8092204F18C
:1031B00038010546FCF7C6FF94F841008DF8410040
:1031C00094F842008DF84200606C1190174C262252
:1031D00004F13800C4F8806069466034FCF7B2FF3F
:1031E000BDF8260024F8020C0A99A4F16400416697
:1031F000BDF82C10A0F86810BDF82E00E0800C98E7
:10320000A0600D98E0600922294604F11000FCF747
:1032100099FF9DF8410060769DF84200A0761198D4
:10322000E06114B070BD0000DC0C0020380100200B
:1032300070B50B4E0C46054601213046FDF7A4FE45
:1032400048B10020287002213046FDF79DFE20B1D4
:103250000020207070BD0120F4E70120F9E7000094
:103260000008014005490A682AB14A68906348602D
:103270000021816370470860F9E700005C0B0020C3
:1032800006490A683AB14A68C2F8A40048600021B9
:10329000C0F8A41070470860F8E70000640B002035
:1032A00006490A683AB14A68C2F8040A486000212F
:1032B000C0F8041A70470860F8E70000540B0020BB
:1032C0000B4910B5481EFFF7B3FF094C093C606974
:1032D000D0F8941000208847FDF7B8FA6420FDF775
:1032E000A9FCE061FFF760FDBDE81040FFF738BDC5
:1032F000550000207047000070B505460748046877
:1033000005E021462846FCF766FF20B1A46B002C9F
:10331000F7D1002070BD204670BD00005C0B00207E
:1033200070B505460748046806E021462846FCF7C4
:1033300052FF28B1D4F8A440002CF6D1002070BD73
:10334000204670BD640B002070B505460748046830
:1033500006E021462846FCF73EFF28B1D4F8044A8F
:10336000002CF6D1002070BD204670BD540B00200B
:103370000FB42DE9F04107460D46A8201A9E00F033
:10338000B7FF040041D00A21FCF7F5FE394620467C
:10339000FCF72FFF3D2208A904F11000E560FCF7BF
:1033A000D1FE9DF85D0084F84D009DF85E0084F824
:1033B0004E009DF85F0084F84F009DF8600084F88F
:1033C00050009DF8610084F851009DF8620084F877
:1033D00052009DF8630084F853009DF8640084F85F
:1033E00054009DF8650084F855009DF8660084F847
:1033F00056000748A665C4F89C002046FFF740FF2A
:103400002046BDE8F0015DF814FB0020F9E700005C
:103410006934000870B50546C46C0846FDF798F895
:1034200000260E4B3246FDF706F80D4B3246FCF7F0
:1034300090FF0C4B3246FCF7E5FEFDF770F869682B
:103440002CB1042C05D0082C05D0086470BD48634D
:1034500070BD886370BDC86370BD000000806640A9
:1034600000409F4000407F4070B50D460446C16C4F
:10347000001DFEF749FB2846FDF74CF801462046A3
:10348000BDE87040FFF7C6BFFDF78EBD30B58FB009
:1034900028216846FCF76FFE14210AA8FCF76BFE92
:1034A00001210804CDE900100024029402250491B2
:1034B000CDE907504FF4E01009906846FDF7E8FEAB
:1034C00008B172B6FEE70F20CDE90A054FF480601F
:1034D000CDE90C4002210AA80E94FDF7FDFD00285D
:1034E00001D072B6FEE70FB030BD70470148FEF75D
:1034F000A2B90000740B00200148FEF79CB900003F
:10350000BC0B0020F0B50268194B1A4C1A4D4FF055
:103510008047984205D0B84203D0A04201D0A842CB
:1035200003D122F070064A683243984205D0B8426F
:1035300003D0A04201D0A84203D122F44074CA684B
:1035400022434C6922F08002224302608A68C262F0
:103550000A688262984201D10969016301214161CF
:103560000169C90703D0016921F001010161F0BDC2
:10357000002C0140000400400008004010B501F09C
:103580001F030121046A99408C430462016A9A4036
:103590001143016210BD10B5846842EA032224F48D
:1035A0007F440A432243826010BD826822F0700289
:1035B0000A4342F0070181607047000030B5036A9A
:1035C000026A22F0010202624268846924F07305F3
:1035D0000C682C4323F002058B682B430A4DA8424C
:1035E0000BD123F00805CB6822F440722B434D69C0
:1035F00023F0040315438A692A43426084614968C1
:103600004163036230BD0000002C014030B5026A06
:10361000036A23F010030362436884690D6824F48D
:10362000E64444EA05248D6822F0200242EA0512AD
:103630000B4DA8420ED1CD6822F0800242EA05125D
:103640004D6923F4406343EA85038D6922F040020B
:1036500043EA85034360846149688163026230BD47
:10366000002C014030B5036A026A22F480720262C3
:103670004268C46923F4007324F073050C682C437A
:103680008D6843EA05230C4DA8420ED1CD6823F482
:10369000006343EA05234D6922F4405242EA0512D1
:1036A0008D6923F4806342EA05124260C46149686F
:1036B000C163036230BD0000002C014030B5046AD4
:1036C000026A22F4805202624268C3690D6823F4E0
:1036D000E64343EA05238D6824F4005444EA0534A4
:1036E000064DA84204D14D6922F4804242EA851277
:1036F0004260C36149680164046230BD002C01402E
:1037000010B5036A046A24F001040462846924F099
:10371000F00444EA021423F00A020A4384610262BC
:1037200010BD10B5036A046A24F0100404628469B1
:1037300023F0A00324F4704444EA023243EA011166
:103740008261016210BD00000148006870470000FE
:10375000640B002010B5406A0021C185C184FEF7CA
:1037600069FA10BD01680C3151E8002F22F4907203
:1037700041E80023002BF5D10168143151E8002FF6
:1037800022F0010241E80023002BF5D1016B012951
:1037900009D101680C3151E8002F22F0100241E8F4
:1037A0000023002BF5D1202180F842100021016375
:1037B000704700000148006870470000540B00206B
:1037C00008B590F84210222901D0022008BD826875
:1037D0004FF480539A4201D1016921B1816A9A4222
:1037E0001BD04AB10AE00268816A5268C2F308023B
:1037F0000A80816A891C08E0026972B10268526815
:1038000002F07F020A70816A491C8162C18D491EE3
:103810000904090CC18503D01BE002685268F1E776
:103820000168CA6822F02002CA600168CA6822F4EE
:103830008072CA6001684A6922F001024A6120214F
:1038400080F8421000214163026B012A03D0FEF789
:1038500003FC002008BD016301680C3151E8002F12
:1038600022F0100241E80023002BF5D101680A681C
:10387000D20602D50A6849680091818DFEF7D9F910
:10388000E7E7000070B5044600680169E26821F4CA
:103890004051114301612169A068084361690843EF
:1038A0002168CA6841F20C639A430243CA602068E7
:1038B0004169A26921F44071114341611E492068A8
:1038C000884202D1FDF7AEFC01E0FDF79BFC00EB66
:1038D000C00101EB0012606864218000B2FBF0F3CC
:1038E000B3FBF1F36FF018067343B2FBF0F5B2FBD4
:1038F000F0F605EB8305322303EB0515B5FBF1F577
:10390000B6FBF1F605F0F00505EB0615B2FBF0F697
:10391000B2FBF0F0B0FBF1F06FF01802504306EB91
:10392000800003EB0010B0FBF1F0216800F00F0005
:103930002844886070BD00000038014081628285A3
:10394000C28500214164222180F84210016921B121
:103950000168CA6842F48072CA6001684A6942F02C
:1039600001024A610068C16841F02001C160002085
:10397000704700000148FEF75FB900004C0C0020C2
:103980000148FEF759B90000940C00200148FEF7E9
:1039900053B90000DC0C0020FEE700000FB4084B18
:1039A00010B504A902AA039800F0EEF8044602A993
:1039B000002000F080FC204610BC5DF814FB0000E5
:1039C000B74200080907090E002804DB00F1E020D7
:1039D00080F80014704700F00F0000F1E02080F83C
:1039E000141D704702E008C8121F08C1002AFAD14E
:1039F00070477047002001E001C1121F002AFBD16F
:103A0000704700002DE9FF5F82B00021DDE904303E
:103A1000020DDDF840B0034318D044F61050A2F276
:103A2000FF3242431514119801281FD0A5EB0B005B
:103A3000401C5FEA000A4FF000064E4FDFF8389155
:103A4000B046504615D5CAF1000413E01198012480
:103A50004AA3012801D16FEA0B010298119AC0E92B
:103A60000031C0E9024206B0BDE8F09FCBF1000092
:103A7000DFE704460021404A491842EB0450CDE9F3
:103A8000001012E0E00707D032463B464046494668
:103A9000FCF75FFC8046894632463B461046194695
:103AA000FCF757FC06460F466410002CEAD1DDE90E
:103AB0000401DDE90023BAF1000F06DAFCF749FC46
:103AC00042464B46FCF745FC05E0FCF7B4FC424699
:103AD0004B46FCF7B0FC04460E460022284BFCF790
:103AE0004BFD03D84FF0FF30014607E00022254B85
:103AF00020463146FCF786FBFCF752FE102409E015
:103B0000002C0ADB0A220023FCF764FD039B303201
:103B10001A55641E50EA0102F2D1641C039AC4F1E2
:103B200011031444119A012A03D0012208430DD134
:103B30000AE0084304D000204FF0110B119072E707
:103B4000A3EB0B056D1E0DE05B4504DD4FF000029D
:103B500005F1010504E003DA4FF00002A5F10105CB
:103B6000002AECD002981199C0E90231C0E9004561
:103B700079E70000000014400000F03F3000000032
:103B80000000F0430000E03F2DE9FF4F95B09B4659
:103B90008946064600250FE2252877D100242746CE
:103BA000F84A0121059400E0044316F8013F203B48
:103BB00001FA03F01042F7D130782A2811D06FF0C3
:103BC0002F033078A0F13002092A16D8059A44F064
:103BD000020402EB820203EB42021044761C0590C1
:103BE000EFE759F8042B0592002A03DA504244F417
:103BF0000054059044F00204761C30782E2816D12B
:103C000016F8010F44F004042A280DD06FF02F029B
:103C10003078A0F13003092B09D807EB870302EBBA
:103C20004303C718761CF3E759F8047B761C3078F9
:103C30006C280FD006DC4C2817D068280DD06A28D5
:103C400014D104E0742810D07A280FD10DE044F488
:103C500000140AE044F4801401E044F44014727843
:103C6000824202D104F58014761C761C30786628D6
:103C70000BD013DC582877D009DC002875D04528F4
:103C8000F6D04628F4D047281AD19DE118E06328E1
:103C900035D0642879D0652812D195E1702873D089
:103CA00008DC6728F1D069286FD06E280DD06F2806
:103CB00006D1B5E073282CD0752875D0782874D03B
:103CC0005A46179990476D1C75E1C4F302500228BB
:103CD00009D003280DD0D9F8001004280DD00D60AC
:103CE00009F1040967E1D9F80010EA17C1E90052A7
:103CF000F6E7D9F800100D80F2E70D70F0E719F83B
:103D0000041B8DF8001000208DF80100EA46012008
:103D100003E059F804AB4FF0FF3061074FF00001AA
:103D200002D40DE008F101018846B9420FDA80455E
:103D3000F8DB1AF808100029F4D108E008F10101B5
:103D400088468142FADB1AF808100029F6D1059856
:103D50005B46A0EB080721463846179A00F094FA14
:103D6000284400EB080507E04DE029E10DE01AF8D2
:103D7000010B5A4617999047B8F10108F7D25B46F4
:103D800021463846179A13E142E00A220092C4F312
:103D900002524FF0000A022A08D059F804CB032A35
:103DA0004FEAEC710AD00DE029E02AE009F10701A1
:103DB00021F00702F2E802C1914609E00FFA8CFCFB
:103DC0004FEAEC71042A03D14FFA8CFC4FEAEC71F4
:103DD000002907DA0A460021DCF1000C61EB020140
:103DE0002D2202E0220504D52B228DF80420012289
:103DF00003E0E20701D02022F7E7904659E00A21CC
:103E000002E010220DE010214FF0000A00910BE0BB
:103E100010224FF0000A44F004040827009203E047
:103E200008224FF0000A0092C4F30252022A05D081
:103E300059F804CB0021032A08D009E009F1070151
:103E400021F00702F2E802C1914605E01FFA8CFC5E
:103E5000042A01D10CF0FF0C4FF00008220728D5EE
:103E6000702806D0009B83F0100353EA0A0305D0A4
:103E70000EE040228DF80420012208E05CEA0102F5
:103E800006D030228DF804208DF8050002229046DD
:103E9000009B83F0080353EA0A030AD15CEA01029B
:103EA00001D1620705D530228DF804204FF00108BA
:103EB0007F1E582804D034A003900EA802900DE075
:103EC00036A0F9E753466046009AFCF783FB844628
:103ED0000398825C0298401E029002705CEA010026
:103EE000F0D1029806A9081A00F1200A600702D54D
:103EF00024F4803400E00127574502DDA7EB0A00D7
:103F000000E0002000EB0A01009005984144401AAF
:103F10000590E00306D45B462146179A059800F009
:103F2000B3F90544002706E001A85A46C05D179979
:103F300090476D1C7F1C4745F6DBE0030CD55B46C4
:103F40002146179A059800F09FF9054404E03020B7
:103F50005A46179990476D1C0099481E00900029F9
:103F6000F5DC08E0029802995A460078491C029153
:103F7000179990476D1CBAF10001AAF1010AF1DC12
:103F800065E100000928010030313233343536371D
:103F90003839616263646566000000003031323395
:103FA0003435363738394142434445460000000035
:103FB00000F058F90544761C307800287FF4ECAD09
:103FC00019B02846BDE8F08F620700D4062709F132
:103FD000070222F0070CFCE80223E14603F0004848
:103FE0005FEA080C02D00FF2702C0DE05FEA045C6F
:103FF00002D50FF2682C07E05FEAC47C02D00FF212
:10400000602C01E0AFF2700C4FF0FF3823F000435A
:10401000CDF850C065280CD006DC452809D04628CC
:104020001DD047283DD13DE0662818D067287ED1B5
:1040300038E00021112F01DB112000E0781CCDE9D0
:10404000000106A90EA8FFF7DDFCDDE90F010E9ABD
:1040500003910021009207F1010A04914DE04FF015
:1040600000400097CDE9011006A90EA8FFF7CAFC91
:10407000DDE90F0203920E9B11990022DDF80CA0DE
:104080000093049211B9791C00EB010AB7EB0A0006
:1040900004D4C0F1FF3007F1010A0490AAEB070035
:1040A000019044E0012F00DA01270021112F01DDEA
:1040B000112000E03846CDE9000106A90EA8FFF75F
:1040C000A1FCDDE90F010E9A0391002104910092F9
:1040D000BA4621070CD40399514500DA8A46BAF151
:1040E000010F05DD009AAAF10101515C302908D0C9
:1040F000B84202DA10F1040F06DA0121CDE901100D
:1041000015E0AAF10101E9E7002805DC0499014462
:104110000491AAEB000102E0411C514500DD8A46F2
:104120000499401A401C01904FF000400290200773
:1041300004D40198504501DBCDF8048000208DF8AF
:104140004F0002980DF14F07B0F1004F25D02B2002
:104150000E9002984FF0020800280CDA40420290BC
:104160002D200E9007E00A210298FCF71DFA30314D
:10417000029007F8011DB8F10001A8F10108F2DC76
:1041800002980028EFD1791E0E980870307800F060
:10419000200040F0450007F8020D12A8C01B00F1F6
:1041A00007081498007800B1012000EB0A0101987B
:1041B00001EBE07105984144401A401E0590E00370
:1041C00006D45B462146179A059800F05DF8054431
:1041D0001498007818B15A46179990476D1CE0035F
:1041E00024D55B462146179A059800F04DF8054402
:1041F0001CE00498002807DBDDE90301884203DDA9
:104200000098405C179901E0179930205A46904772
:10421000049805F10105401C04900198401E01908E
:1042200004D12E205A46179990476D1CBAF100010F
:10423000AAF1010ADDDC05E017F8010B5A461799CF
:1042400090476D1CB8F10001A8F10108F4DC5B4651
:104250002146179A0598ABE62D0000002B000000C0
:10426000200000002DE9F041044600251E461746B7
:10427000880404D405E039462020B0476D1C641E34
:10428000F9D52846BDE8F0812DE9F0410446002526
:104290001E469046C80301D5302700E02027880439
:1042A00004D505E041463846B0476D1C641EF9D57B
:1042B0002846BDE8F0810A68531C0B6010707047F7
:1042C000FCF77AFEFFF7E2F8FEF728FAFEF72CFB80
:1042D000FEF7EAFAFEF760FBFEF77CFAFEF7B0FAAB
:1042E000FEF73EFBFDF7ACFFFEF7EAFFFCE7000040
:1042F000F0B50B30154D20F007010024144A0FE0F3
:1043000003688B420BD38B4205D95E1A431847686A
:10431000C3E9006700E04368136002C004E0021DC7
:1043200010680028ECD12046002802D1286808B186
:104330000020F0BD064A07481060074A121A22F012
:104340000702C0E9002401202860D7E7700B002095
:104350006C0B002024190020201B0020000000000E
:10436000000000000000000000000000000000F855
:1043700000000000000000333000000000160E00B6
:10438000160E0000000000000000000040C0784051
:10439000C0784000043F04043F040400007088FC1F
:1043A00008300000001820FF211E0000F008F00077
:1043B000E018000000211C031E211E0000F00888E8
:1043C000700000001E212324192721100000001670
:1043D0000E0000000000000000000000000000E0EF
:1043E0001804020000000007182040000002041812
:1043F000E00000000040201807000000404080F06E
:10440000804040000202010F01020200000000F0A3
:10441000000000000101011F010101000000000077
:104420000000000000B0700000000000000000006C
:104430000000000000010101010101010000000075
:10444000000000000030300000000000000000000C
:1044500080601804006018060100000000E01008E9
:104460000810E000000F102020100F00001010F8BE
:10447000000000000020203F2020000000700808FD
:10448000088870000030282422213000003008887D
:10449000884830000018202020110E000000C020A5
:1044A00010F8000000070424243F240000F80888C6
:1044B000880808000019212020110E0000E0108853
:1044C00088180000000F112020110E000038080885
:1044D000C83808000000003F000000000070880895
:1044E00008887000001C222121221C0000E0100816
:1044F0000810E0000000312222110F00000000C06F
:10450000C00000000000003030000000000000C0CB
:10451000C0000000000080B070000000000080407B
:104520002010080000010204081020004040404014
:104530004040400004040404040404000008102067
:1045400040800000002010080402010000704808AC
:104550000808F0000000003036010000C030C82814
:10456000E810E0000718272423140B000000C038CF
:10457000E0000000203C23020227382008F8888849
:1045800088700000203F202020110E00C030080855
:1045900008083800071820202010080008F808082C
:1045A0000810E000203F202020100F0008F8888825
:1045B000E8081000203F20202320180008F88888F1
:1045C000E8081000203F200003000000C030080869
:1045D0000838000007182020221E020008F80800F2
:1045E0000008F808203F210101213F20000808F8B9
:1045F000080800000020203F2020000000000808DC
:10460000F8080800C08080807F00000008F888C09B
:1046100028180800203F20012638200008F808004C
:1046200000000000203F20202020300008F8F80083
:10463000F8F80800203F003F003F200008F830C095
:104640000008F808203F200007183F00E010080885
:104650000810E0000F10202020100F0008F80808B4
:104660000808F000203F210101010000E0100808C7
:104670000810E0000F18242438504F0008F88888EC
:1046800088887000203F2000030C302000708808CC
:10469000080838000038202121221C00180808F8DA
:1046A000080818000000203F2000000008F808005B
:1046B0000008F808001F202020201F00087888002C
:1046C00000C83808000007380E010000F80800F89C
:1046D0000008F800033C0700073C03000818688046
:1046E0008068180820302C03032C30200838C800BC
:1046F000C83808000000203F20000000100808080B
:10470000C83808002038262120201800000000FEAC
:10471000020202000000007F40404000000C30C058
:1047200000000000000000010638C0000002020284
:10473000FE000000004040407F0000000020100804
:10474000040810200000000000000000000000002D
:10475000000000008080808080808080000204084B
:104760000000000000000000000000000000808049
:10477000808000000019242222223F2008F80080B7
:1047800080000000003F112020110E00000000807A
:1047900080800000000E1120202011000000008009
:1047A0008088F800000E112020103F20000080803B
:1047B00080800000001F222222221300008080F04F
:1047C000888888180020203F20200000000080807A
:1047D00080808000006B94949493600008F80080BF
:1047E00080800000203F210000203F20008098981A
:1047F000000000000020203F20200000000000807A
:104800009898000000C08080807F000008F80000B9
:1048100080808000203F24022D302000000808F80E
:10482000000000000020203F2020000080808080C9
:1048300080808000203F20003F20003F00808000DB
:104840008080000000203F2100203F200000808069
:1048500080800000001F202020201F00808000801A
:104860008000000080FFA12020110E0000000080C9
:1048700080808000000E112020A0FF8080808000BA
:104880008080800020203F212000010000008080E7
:10489000808080000033242424241900008080E0DC
:1048A000808000000000001F2020000080800000A9
:1048B00000808000001F202020103F20808080008A
:1048C0000080808000010E3008060100808000809A
:1048D000008080800F300C030C300F0000808000BF
:1048E000808080000020312E0E31200080808000EA
:1048F0000080808080818E7018060100008080809A
:10490000808080000021302C222130000000000037
:10491000807C020200000000003F404000000000D8
:10492000FF00000000000000FF0000000002027C09
:10493000800000000040403F000000000080404038
:104940008000008000000000000101000000000065
:1049500000000000002F0000000007000700001406
:104960007F147F1400242A7F2A1200231308646214
:1049700000364955225000000007000000001C22AC
:104980004100000041221C000014083E08140008E9
:10499000083E0808000000A0600000080808080899
:1049A000000060600000002010080402003E514931
:1049B000453E0000427F40000042615149460021CF
:1049C00041454B31001814127F10002745454539E9
:1049D000003C4A4949300001710905030036494944
:1049E000493600064949291E0000363600000000FD
:1049F0005636000000081422410000141414141448
:104A0000000041221408000201510906003E4955E8
:104A1000592E007C1211127C007F49494936003E14
:104A200041414122007F4141221C007F49494941C7
:104A3000007F09090901003E4149497A007F0808C1
:104A4000087F0000417F4100002040413F01007F7E
:104A500008142241007F40404040007F020C027F4A
:104A6000007F0408107F003E4141413E007F09095C
:104A70000906003E4151215E007F09192946004682
:104A8000494949310001017F0101003F4040403F59
:104A9000001F2040201F003F4038403F00631408A3
:104AA000146300070870080700615149454300007E
:104AB0007F414100000204081020000041417F00B6
:104AC0000004020102040040404040400000010296
:104AD0000400002054545478007F4844443800387F
:104AE0004444442000384444487F00385454541807
:104AF00000087E0901020018A4A4A47C007F080419
:104B000004780000447D4000004080847D00007FE8
:104B1000102844000000417F4000007C0418047805
:104B2000007C0804047800384444443800FC242401
:104B300024180018242418FC007C080404080048E9
:104B40005454542000043F444020003C4040207C0A
:104B5000001C2040201C003C4030403C00442810F9
:104B60002844001CA0A0A07C004464544C440000D5
:104B7000087F41000000007F00000000417F080026
:104B8000000804081008A3AC0000000000000000AA
:104B90000000000000000000000000583800000085
:104BA000000000000000000000A1A30000000000C1
:104BB00000000000000000000000000000001824B9
:104BC000241800000000000000000000C8C8000811
:104BD0000888FF4848000848FF0808F800000081DE
:104BE00065080720C0080423C0030023C40F00B5D4
:104BF000E3000000C04040407F48484848C80808DB
:104C0000000080403704041464041464040710E0B6
:104C10000000C1AC00404042CC000444645C47F456
:104C200044444404000040201F2044444444447F42
:104C30004444444400BDD300101010FF10504454AD
:104C400065C64464544440000444827F0182824A21
:104C5000562322524E820200CAA7000040301E1086
:104C60001010FF1010101010000000818141211160
:104C70000D0301030D112141818100B0DC0000FE14
:104C800002FA02FE4020D8171010F01010008047E2
:104C9000300F106780402116081621408000BCBDEF
:104CA000001012F2AAAABFA0E0A0A7AAAAEA090CC3
:104CB000002020AB6A2A3E2A2B2A3E2A6AAB2020FB
:104CC00000BDFA0040424A52427E4242427E425277
:104CD0004A424000000000FF49494949494949FF0B
:104CE00000000000C1C900404042CC0000020202A6
:104CF000F20A06020000000040201F2040404850F9
:104D00004F404040404000BCAA000808888888887E
:104D100088FF8888888888080800000000FC4444D0
:104D20004444444444FC00000000BADA0000003E61
:104D3000222A3222FE22322A223E000000886809FE
:104D40000929C9090F29C9090929C80800CBD500B3
:104D5000044444445F44F44444445FC404040400F1
:104D600000108E40201807004080403F00010E00D8
:104D7000D5E30020C20C801010FF1090FC4442C309
:104D800042400004047E0142827F81403F0000FFD8
:104D9000000000CDEE0000F80C0BF8100C242425C8
:104DA000262424140C00007F21217F8041310F0133
:104DB000013F41417100C3F60000F80102E02222E8
:104DC000FA2222E20202FE000000FF0020672222F7
:104DD0001F12121B3080FF0000B8D30012D65A53A6
:104DE0005AD612286457CA5652202000101715FDB3
:104DF00015171081BD453545BD010000C2B3001037
:104E000008FCAAABAAAAFAAAAAAEA8F80000000257
:104E10000202FAAAAAAAAAAAAAAAFA02020200D41A
:104E2000A500424AD26A46D0087C4BCA6A5A4E480C
:104E3000780040807F0001004A4A2552897E041A8A
:104E40002100B6F500005E525E405E525E0000FE3C
:104E50000222DA0600010107054585453D0100FFF4
:104E60000810080700CFE60020C20C801090FF90C9
:104E700000FC444444FC000004047E050201FF00E1
:104E800001FF444444FF0000D4C1000000FE02962C
:104E90005A33FE325A9602FE0000000404051D1526
:104EA0001515151555955535040400C7ED004444F6
:104EB000FC44440004E42425262424E404001030A7
:104EC0001F080820100D41817F0105093000B4A89A
:104ED00000000000FF00000000FE00000000FF00D6
:104EE000008040300F000000003F00000000FF0085
:104EF00000B9F3004040405E5252527F5252525E1F
:104F0000404040000080809F4141211D0121215FE0
:104F100040800000D4C600404042424242C2424269
:104F2000424242424040000020702824232020209A
:104F3000242830E0000000C9C20000FE225A860882
:104F4000284808FF08482808000000FF0408874197
:104F500021190701071921418100B8CA000010106A
:104F600010FF101010101010FF10101000000000A3
:104F700000FF424242424242FF00000000C7E00000
:104F8000404454545454547F545454545444400052
:104F9000000000FF151515151555957F0000000040
:104FA000C3C900229A8A8AAFAAAAAAAAAAAF8A8AE1
:104FB000AA1A000050524A2A25538A7C0814242237
:104FC000404000B9F0001010D0FF9010404444441D
:104FD0007F4444444000040300FF00034044444431
:104FE0007F4444444000C4FE002018888888888993
:104FF0008E8888888888281800000000000040807B
:105000007F0000000000000000BEA900040404E4CA
:1050100024242526242424E4040404000040201B26
:105020000242827E0202020B10600000A3BA00005E
:105030000000000000000000000000000000000070
:10504000003636000000000000000000000000BF35
:10505000AA0080828282FE8282828282FE82828294
:105060008000008040300F0000000000FF000000C2
:105070000000B9D80000001011161010F010101424
:1050800013100000008181414121110D030D1121F8
:105090004141818100D3D00004040484E43C2724EE
:1050A000242424E40404040004020100FF09090983
:1050B0000949897F00000000CEDE000040424242E4
:1050C000C27E42C242424240400000804020100C5A
:1050D0000300003F40404040700000C8CB0000008B
:1050E00000000000C03FC000000000000000804041
:1050F00020100C03000000030C1020408000C4A30B
:10510000001010D0FF9014E4AFA4A4A4AFE40400F6
:1051100000040300FF00894B2A1A0E1A2A4B8880CC
:1051200000CABD00101090909090901010FF1010C9
:1051300011161000002060203F10101000030C100A
:105140002040F800D7D400000000F8888C8A8988B5
:105150008888F800000000000000FF4444444444F4
:105160004444FF00000000B6AF004044C44444443F
:10517000401010FF101010F00000103C131014B875
:1051800040300E014080403F0000CAD6000000249D
:1051900024242424FC2222222322000000020202D2
:1051A000020242827F0202020202020200E3D000F7
:1051B00000F80122A0A2A222FE22AA3202FE0000D2
:1051C00000FF0010130A4B20170C133880FF00005B
:1051D000D6B500008060F80704E4A4A4BFA4A4E44A
:1051E000040000010000FF40407F4A4A4A4A4A7FCB
:1051F000404000B1A800101010FF109000FE828205
:105200008292A29E00000444827F010000FF80433E
:105210002C102C438000BEAF0012EAAFAAEA0FFAAE
:1052200002888C5724548C84000202EAAAAAABAAF2
:10523000ABAAAAAAAAEA020200A1FC000000000090
:1052400040301CFF1C304000000000000000000047
:10525000000000FF0000000000000000A1FD0000B1
:10526000000000000000FF0000000000000000003F
:10527000000000020C38FF380C020000000000A102
:10528000FB008080C0C0E0A0908080808080808013
:105290008000000001010302040000000000000083
:1052A0000000A1FA00808080808080808090A0E053
:1052B000C0C0808000000000000000000004020365
:1052C0000101000000CAB600404042CC000000FCD2
:1052D0000404040404FC00000000003F1088402384
:1052E000190101091123C000B1F000003E22E222A1
:1052F00022223E0000F80000FF00008141310F41F2
:1053000081413F00000F40807F0000B3C9000000D2
:10531000F8888888880808FF08090AC8080080609B
:105320001F0010201F80402116182641F800B9A642
:1053300000080808F80808081010FF101010F00006
:10534000001030101F088848300E014080403F0098
:1053500000CAA7000040301E101010FF10101010DF
:105360001000000081814121110D0301030D112165
:1053700041818100B0DC0000FE02FA02FE4020D82C
:10538000171010F01010008047300F106780402178
:1053900016081621408000D6D0000000F010101032
:1053A00010FF10101010F000000000000F040404A3
:1053B00004FF040404040F000000D5FD00000202F5
:1053C000C2020202FE8282828282020000404040CB
:1053D0007F4040407F4040404040404000D4DA00A1
:1053E000080888C8380C0B0808E8080808080800EE
:1053F000020100FF40414141417F414141414000A4
:10540000B3F60000007C40404040FF40404040FC7C
:10541000000000007C40404040407F404040404011
:10542000FC0000B3A1002020FF20200042E2524AED
:10543000C64240C0000010301F0828108C432018BE
:105440004780403F0000C8EB00000000000001E280
:105450001CE000000000000000804020100C030051
:105460000000030C3040808000B3B500000888487D
:1054700028180FE8080808080808000008080909A3
:10548000090909FF0909090909080800C5C600003A
:10549000FE20203F2000FC26A57C2424FC00008068
:1054A0007F0101FF00080D0B0909FF09090800BA77
:1054B000C500808080BEA2A2A2A2A2A2A2BE8080BD
:1054C000800000000006050404044484443C0000FD
:1054D0000000A3BA0000000000000000000000006F
:1054E0000000000000000036360000000000000050
:1054F0000000000000D5FD00000202C2020202FE10
:1055000082828282820200004040407F4040407F91
:105510004040404040404000D4DA00080888C83885
:105520000C0B0808E8080808080800020100FF4002
:10553000414141417F414141414000BDF80040406F
:1055400042CC00808888FF8888FF888880000040DF
:10555000201F2040504C4340405F40404000B3F685
:105560000000007C40404040FF40404040FC0000C4
:1055700000007C40404040407F4040404040FC00B4
:1055800000CAB10000FC848484FC001010101010CC
:10559000FF101000003F1010103F00000106408077
:1055A0007F000000B3A40080808080FF8080A090F6
:1055B0008884828080800000000000FF4021120467
:1055C00008102020404000B7D10000023AAA6A3FEC
:1055D0002A2A2AFF2AAA2EE000000002819E4242C7
:1055E000221A2222425E81000000D3C3000000FE86
:1055F00022222222FE22222222FE00000080601FA0
:10560000020202027F020242827F000000D4AA004E
:105610002020222222E2222222E222222220200014
:10562000804020100C030000003F404040407800C4
:10563000CAD50000FC0000FF004020D8171010F071
:10564000101000000F0402FF0080402116081621F0
:10565000408000B7D10000023AAA6A3F2A2A2AFFF6
:105660002AAA2EE000000002819E4242221A222233
:10567000425E81000000B1EA001010D0FF901020BF
:10568000222222E22222222000040300FF00130C27
:105690000340807F0001061800D7BC0000020CE028
:1056A0004020F84F4849FE484848080004047F005D
:1056B0000000FF2222223F2222222000D0A100004F
:1056C0000000E0000000FF00000020408000000813
:1056D0000403000040807F0000000000010E00CAAB
:1056E000B10000FC848484FC001010101010FF1026
:1056F0001000003F1010103F0000010640807F00A6
:105700000000B3B5000008884828180FE80808080A
:10571000080808000008080909090909FF0909091A
:105720000909080800CEBB00008060F8071090103F
:1057300011161010D0100000010000FF4040415E23
:105740004040704E41404000CAA300484AFA0AFE59
:1057500009F949A80000F00000FF0022110B04FF26
:105760000409122300000F40807F00D3E0008080F6
:105770004020504844C344485020408080000040AE
:10578000221A0242827F0202020A12600000D2BB89
:105790000080808080808080808080808080808089
:1057A00000000000000000000000000000000000F9
:1057B00000B6FE00000008080808080808080808E5
:1057C0000800000010101010101010101010101011
:1057D00010101000D5BC0000000000000000FF0801
:1057E000080808080808000000FF41414141414104
:1057F000414141FF000000BFD500100C44241404B7
:1058000005060404142444140C00004040414141A6
:10581000417F4141414140400000C4A3001010D0ED
:10582000FF9014E4AFA4A4A4AFE4040000040300B8
:10583000FF00894B2A1A0E1A2A4B888000CABD0025
:10584000101090909090901010FF101011161000F2
:10585000002060203F10101000030C102040F800C2
:10586000B3B5000008884828180FE8080808080899
:1058700008000008080909090909FF0909090909B7
:10588000080800CEBB00008060F8071090101116C9
:105890001010D0100000010000FF4040415E404069
:1058A000704E41404000D2BB00808080808080806C
:1058B00080808080808080800000000000000000E8
:1058C000000000000000000000B6FE000000080814
:1058D0000808080808080808080000001010101040
:1058E000101010101010101010101000CEB4008006
:1058F000808888888888FF888888888880800020B9
:10590000201008040201FF0102040810202000D426
:10591000A400424AD26A46C000F2121AD61212F20B
:10592000020040807F000100804F20180710204FA8
:105930008000D4BC002030AC63201820900C0B08F1
:105940000808F80000226722121212000001064027
:1059500080403F0000D2D1000000E2828282828239
:10596000828282FE0000000000003F404040404034
:105970004040404040780000B5D800202020FF2063
:105980002080F88040FF2010F000001030100F0839
:1059900008003F40405F4244437800CBF8002010AD
:1059A0002CE7242400E22C20BF2028E6000001017F
:1059B000017F2111804F20100F10204F8000BFAABF
:1059C0000080828282FE8282828282FE8282828045
:1059D00000008040300F0000000000FF00000000C9
:1059E00000B9D80000001011161010F01010141398
:1059F000100000008181414121110D030D11214151
:105A000041818100B3B5000008884828180FE808D4
:105A10000808080808000008080909090909FF0919
:105A200009090909080800C5C60000FE20203F201A
:105A300000FC26A57C2424FC0000807F0101FF00DF
:105A4000080D0B0909FF09090800BAC5008080800C
:105A5000BEA2A2A2A2A2A2A2BE80808000000000DC
:105A600006050404044484443C00000000D5BC0046
:105A700000000000000000FF0808080808080800EF
:105A80000000FF414141414141414141FF000000CF
:105A9000D3C3000000FE22222222FE22222222FE66
:105AA00000000080601F020202027F020242827F29
:105AB000000000BCBD001012F2AAAABFA0E0A0A77F
:105AC000AAAAEA090C002020AB6A2A3E2A2B2A3E09
:105AD0002A6AAB202000BDFA0040424A52427E4270
